{
  "contractName": "VOCVendor",
  "abi": [
    {
      "inputs": [
        {
          "internalType": "uint256",
          "name": "rate",
          "type": "uint256"
        },
        {
          "internalType": "address payable",
          "name": "wallet",
          "type": "address"
        },
        {
          "internalType": "contract IERC20",
          "name": "token",
          "type": "address"
        }
      ],
      "stateMutability": "nonpayable",
      "type": "constructor"
    },
    {
      "anonymous": false,
      "inputs": [
        {
          "indexed": true,
          "internalType": "address",
          "name": "purchaser",
          "type": "address"
        },
        {
          "indexed": true,
          "internalType": "address",
          "name": "beneficiary",
          "type": "address"
        },
        {
          "indexed": false,
          "internalType": "uint256",
          "name": "value",
          "type": "uint256"
        },
        {
          "indexed": false,
          "internalType": "uint256",
          "name": "amount",
          "type": "uint256"
        }
      ],
      "name": "TokensPurchased",
      "type": "event"
    },
    {
      "inputs": [
        {
          "internalType": "address",
          "name": "beneficiary",
          "type": "address"
        }
      ],
      "name": "buyTokens",
      "outputs": [],
      "stateMutability": "payable",
      "type": "function",
      "payable": true
    },
    {
      "inputs": [],
      "name": "getRate",
      "outputs": [
        {
          "internalType": "uint256",
          "name": "",
          "type": "uint256"
        }
      ],
      "stateMutability": "view",
      "type": "function",
      "constant": true
    },
    {
      "inputs": [],
      "name": "getToken",
      "outputs": [
        {
          "internalType": "contract IERC20",
          "name": "",
          "type": "address"
        }
      ],
      "stateMutability": "view",
      "type": "function",
      "constant": true
    },
    {
      "inputs": [],
      "name": "getWallet",
      "outputs": [
        {
          "internalType": "address payable",
          "name": "",
          "type": "address"
        }
      ],
      "stateMutability": "view",
      "type": "function",
      "constant": true
    },
    {
      "stateMutability": "payable",
      "type": "receive",
      "payable": true
    }
  ],
  "bytecode": "0x608060405234801561001057600080fd5b5060405161096038038061096083398101604081905261002f91610191565b60016000558282828261007d5760405162461bcd60e51b8152602060048201526011602482015270056656e646f723a2072617465206973203607c1b60448201526064015b60405180910390fd5b6001600160a01b0382166100de5760405162461bcd60e51b815260206004820152602260248201527f56656e646f723a2077616c6c657420697320746865207a65726f206164647265604482015261737360f01b6064820152608401610074565b6001600160a01b03811661013e5760405162461bcd60e51b815260206004820152602160248201527f56656e646f723a20746f6b656e20697320746865207a65726f206164647265736044820152607360f81b6064820152608401610074565b600292909255600380546001600160a01b039283166001600160a01b03199182161790915560018054929093169116179055506101d4915050565b6001600160a01b038116811461018e57600080fd5b50565b6000806000606084860312156101a657600080fd5b8351925060208401516101b881610179565b60408501519092506101c981610179565b809150509250925092565b61077d806101e36000396000f3fe6080604052600436106100435760003560e01c8063132996041461005d57806321df0da714610094578063679aefce146100b2578063ec8ac4d8146100d057600080fd5b3661005857610056336100de565b6100de565b005b600080fd5b34801561006957600080fd5b506003546001600160a01b03165b6040516001600160a01b0390911681526020015b60405180910390f35b3480156100a057600080fd5b506001546001600160a01b0316610077565b3480156100be57600080fd5b5060025460405190815260200161008b565b610056610051366004610637565b600260005414156101365760405162461bcd60e51b815260206004820152601f60248201527f5265656e7472616e637947756172643a207265656e7472616e742063616c6c0060448201526064015b60405180910390fd5b60026000553461014682826101b5565b600061015182610343565b905061015d8382610359565b60408051838152602081018390526001600160a01b0385169133917f6faf93231a456e552dbc9961f58d9713ee4f2e69d15f1975b050ef0911053a7b910160405180910390a36101ab610374565b5050600160005550565b6001600160a01b03821661021b5760405162461bcd60e51b815260206004820152602760248201527f56656e646f723a2062656e656669636961727920697320746865207a65726f206044820152666164647265737360c81b606482015260840161012d565b806102615760405162461bcd60e51b8152602060048201526016602482015275056656e646f723a20776569416d6f756e7420697320360541b604482015260640161012d565b6001546040516370a0823160e01b81523060048201526000916001600160a01b0316906370a0823190602401602060405180830381865afa1580156102aa573d6000803e3d6000fd5b505050506040513d601f19601f820116820180604052508101906102ce9190610660565b90508181101561033e5760405162461bcd60e51b815260206004820152603560248201527f56656e646f723a20636f6e747261637420686173206e6f7420656e6f75676820604482015274746f6b656e7320696e206974732062616c616e636560581b606482015260840161012d565b505050565b6000600254826103539190610679565b92915050565b600154610370906001600160a01b031683836103b0565b5050565b6003546040516001600160a01b03909116903480156108fc02916000818181858888f193505050501580156103ad573d6000803e3d6000fd5b50565b604080516001600160a01b03848116602483015260448083018590528351808403909101815260649092018352602080830180516001600160e01b031663a9059cbb60e01b17905283518085019094528084527f5361666545524332303a206c6f772d6c6576656c2063616c6c206661696c65649084015261033e928692916000916104409185169084906104bd565b80519091501561033e578080602001905181019061045e91906106a6565b61033e5760405162461bcd60e51b815260206004820152602a60248201527f5361666545524332303a204552433230206f7065726174696f6e20646964206e6044820152691bdd081cdd58d8d9595960b21b606482015260840161012d565b60606104cc84846000856104d6565b90505b9392505050565b6060824710156105375760405162461bcd60e51b815260206004820152602660248201527f416464726573733a20696e73756666696369656e742062616c616e636520666f6044820152651c8818d85b1b60d21b606482015260840161012d565b843b6105855760405162461bcd60e51b815260206004820152601d60248201527f416464726573733a2063616c6c20746f206e6f6e2d636f6e7472616374000000604482015260640161012d565b600080866001600160a01b031685876040516105a191906106f8565b60006040518083038185875af1925050503d80600081146105de576040519150601f19603f3d011682016040523d82523d6000602084013e6105e3565b606091505b50915091506105f38282866105fe565b979650505050505050565b6060831561060d5750816104cf565b82511561061d5782518084602001fd5b8160405162461bcd60e51b815260040161012d9190610714565b60006020828403121561064957600080fd5b81356001600160a01b03811681146104cf57600080fd5b60006020828403121561067257600080fd5b5051919050565b60008160001904831182151516156106a157634e487b7160e01b600052601160045260246000fd5b500290565b6000602082840312156106b857600080fd5b815180151581146104cf57600080fd5b60005b838110156106e35781810151838201526020016106cb565b838111156106f2576000848401525b50505050565b6000825161070a8184602087016106c8565b9190910192915050565b60208152600082518060208401526107338160408501602087016106c8565b601f01601f1916919091016040019291505056fea2646970667358221220ec216a0542bb80ab523309241f716a5fb72e83098f6a6d0dbf6b5e90886dce5e64736f6c634300080a0033",
  "immutableReferences": {},
  "source": "// SPDX-License-Identifier: MIT\npragma solidity ^0.8.10;\n\nimport \"./Vendor.sol\";\n\ncontract VOCVendor is Vendor {\n    constructor(\n        uint256 rate,\n        address payable wallet,\n        IERC20 token\n    )\n    Vendor(rate, wallet, token)\n    {\n    }\n}\n",
  "sourcePath": "/devs/DAPP/token-vendor/contracts/VOCVendor.sol",
  "compiler": {
    "name": "solc",
    "version": "0.8.10+commit.fc410830.Emscripten.clang"
  },
  "schemaVersion": "3.4.3",
  "updatedAt": "2021-12-15T03:40:26.261Z",
  "networkType": "ethereum",
  "devdoc": {
    "kind": "dev",
    "methods": {
      "getRate()": {
        "returns": {
          "_0": "the number of token units a buyer gets per wei."
        }
      },
      "getToken()": {
        "returns": {
          "_0": "the token being sold."
        }
      },
      "getWallet()": {
        "returns": {
          "_0": "the address where funds are collected."
        }
      }
    },
    "version": 1
  },
  "userdoc": {
    "events": {
      "TokensPurchased(address,address,uint256,uint256)": {
        "notice": "Event for token purchase logging"
      }
    },
    "kind": "user",
    "methods": {
      "buyTokens(address)": {
        "notice": "Allow users to buy token for ETH"
      }
    },
    "version": 1
  }
}